:020000040800F2
:1000000000000220D5400008F53F0008F73F000837
:10001000F93F0008FB3F0008FD3F0008000000001A
:1000200000000000000000000000000001210008A6
:100030000D4000080000000091210008FF3F00086B
:1000400025410008254100082541000825410008F8
:1000500025410008254100082541000825410008E8
:1000600025410008254100082541000825410008D8
:1000700025410008254100082541000825410008C8
:1000800025410008254100081140000825410008CD
:1000900025410008254100082541000825410008A8
:1000A0002541000825410008254100082541000898
:1000B000254100082541000871400008254100083D
:1000C0002541000825410008254100082541000878
:1000D0002541000825410008594000082541000835
:1000E0002541000825410008254100082541000858
:1000F0002541000825410008254100082541000848
:100100002541000825410008254100082541000837
:1001100025410008254100086540000825410008E8
:100120002541000825410008254100082541000817
:1001300025410008000000000000000025410008E3
:1001400025410008254100082541000825410008F7
:1001500025410008254100082541000825410008E7
:1001600025410008254100082541000825410008D7
:100170002541000825410008254100080000000035
:100180000000000025410008000000000000000001
:100190002541000800000000000000002541000883
:1001A00000000000000000000000000025410008E1
:1001B0002541000825410008254100082541000887
:0401C00025410008CD
:1001D00010B5054C237833B9044B13B10448AFF381
:1001E00000800123237010BD70000020000000007B
:1001F000E849000808B5034B1BB103490348AFF3B6
:10020000008008BD0000000074000020E8490008DC
:10021000034613F8012B002AFBD1181A0138704746
:1002200001F0FF01102A2BDB10F0070F08D010F8A7
:10023000013B013A8B422DD010F0070F42B3F6D1AB
:10024000F0B441EA012141EA014122F007047FF0C4
:1002500000070023F0E80256083C85EA010586EA1B
:10026000010685FA47F5A3FA87F586FA47F6A5FA57
:1002700087F68EB9EED1F0BC01F0FF0102F0070263
:1002800032B110F8013B013A83EA010313B1F8D10E
:100290000020704701387047002D06BF35460338EF
:1002A000073815F0010F07D1013015F4807F02BF28
:1002B000013015F4C03F0130F0BC0138704700BF79
:1002C00053B94AB9002908BF00281CBF4FF0FF31BD
:1002D0004FF0FF3000F07AB9ADF1080C6DE904CEB3
:1002E00000F006F8DDF804E0DDE9022304B0704711
:1002F0002DE9F0478C460D460446089E002B51D14F
:100300008A4217466DD9B2FA82FEBEF1000F0BD0B9
:10031000CEF1200C01FA0EF520FA0CFC02FA0EF7D1
:100320004CEA050C00FA0EF44FEA174A250CBCFB08
:10033000FAF81FFA87F90AFB18CC45EA0C4508FBC6
:1003400009F3AB420AD9ED1908F1FF3280F023819D
:10035000AB4240F22081A8F102083D44ED1AA4B25C
:10036000B5FBFAF00AFB105544EA054400FB09F915
:10037000A14509D9E41900F1FF3380F00A81A145B4
:1003800040F2078102383C44A4EB090440EA0840EB
:100390000021002E61D024FA0EF400233460736033
:1003A000BDE8F0878B4207D9002E54D0002186E8A3
:1003B00021000846BDE8F087B3FA83F1002940F038
:1003C0008E80AB4202D3824200F2FA80841A65EB3F
:1003D00003050120AC46002E3FD086E81010BDE892
:1003E000F08712B90127B7FBF2F7B7FA87FEBEF123
:1003F000000F34D1EB1B3A0C1FFA87FC0121B3FB31
:10040000F2F8250C02FB183345EA03450CFB08F310
:10041000AB4207D9ED1908F1FF3002D2AB4200F22E
:10042000D1808046ED1AA3B2B5FBF2F002FB105565
:1004300043EA05440CFB00FCA44507D9E41900F18C
:10044000FF3302D2A44500F2B8801846A4EB0C0496
:1004500040EA08409DE731463046BDE8F087CEF1DE
:10046000200405FA0EF307FA0EF720FA04F83A0C06
:1004700025FA04F448EA0308B4FBF2F14FEA184500
:1004800002FB11441FFA87FC45EA044501FB0CF30B
:10049000AB4200FA0EF409D9ED1901F1FF3080F0FA
:1004A0008A80AB4240F2878002393D44EB1A1FFA42
:1004B00088F5B3FBF2F002FB103345EA034500FB7D
:1004C0000CF3AB4207D9ED1900F1FF386FD2AB4204
:1004D0006DD902383D44EB1A40EA01418FE7C1F182
:1004E000200722FA07F88B4005FA01F448EA0303D3
:1004F00020FA07FE4FEA134CFD404EEA040EB5FB0E
:10050000FCF94FEA1E440CFB19551FFA83F844EA24
:10051000054509FB08F4AC4202FA01F200FA01FABF
:1005200008D9ED1809F1FF3043D2AC4241D9A9F105
:1005300002091D442D1B1FFA8EFEB5FBFCF00CFBBF
:1005400010554EEA054400FB08F8A04507D9E41809
:1005500000F1FF3529D2A04527D902381C4440EAD2
:100560000940A4EB0804A0FB02894C45C6464D4651
:1005700015D312D056B1BAEB0E0364EB050404FA9E
:1005800007F7CB401F43CC40376074600021BDE8C3
:10059000F0871846F8E69046E0E6C245EAD2B8EBA6
:1005A000020E69EB03050138E4E72846D7E7404629
:1005B00091E78146BEE7014678E702383C4445E7CB
:1005C000084608E7A8F102083D442BE7704700BF42
:1005D00008B50B4B1A6842F400721A601A6842F4AC
:1005E00080621A601A6842F480721A60032000F078
:1005F000A9FA002003F0C0FC03F014FC002008BDA1
:10060000003C0240034A044B11681B780B44136002
:10061000704700BFEC3D002000000020014B18682F
:10062000704700BFEC3D002010B50446002800F0E4
:100630009980036C23B9436480F83C3003F014FCC8
:10064000236CDB0600F18C80236C23F4885323F0A9
:10065000020343F002032364434B5A6822F44032FE
:100660005A605A6861680A435A60236821695A6867
:1006700022F480725A605A6842EA01225A605A682B
:10068000A16822F040725A605A680A435A609A6818
:10069000E16822F400629A609A680A439A603349DA
:1006A000A26A8A4250D0996821F070619960996875
:1006B0000A439A609A68E16A22F040529A609A6806
:1006C0000A439A609A68A16922F002029A609A68C5
:1006D00042EA41029A60226A002A3DD05A68616A61
:1006E00042F400625A605A6822F460425A605A68C2
:1006F000013942EA41325A60DA6AE16922F4700251
:10070000DA62DA6A013942EA0152DA629A68216BE6
:1007100022F400729A609A6842EA41229A609A68CA
:10072000616922F480629A609A68002042EA81221C
:100730009A606064236C23F0030343F00103236495
:10074000002384F83C3010BD9A6822F070629A60F1
:100750009A6822F04052B4E75A6822F40062CAE76D
:100760000120EDE7012010BD002301400100000F32
:1007700003689A6870B5560504460D460BD59B680C
:10078000D80508D5236C43F020032364002384F8A4
:100790003C30012070BDFFF741FF064623681A6810
:1007A00092070CD56FF012021A60226C42F40072AC
:1007B00022649A6812F0405F13D0002070BD691C5B
:1007C000EDD045B9236C43F004032364002384F87F
:1007D0003C30032070BDFFF721FF801B8542DDD236
:1007E000F0E7A269002AE8D1DA6A12F4700F02D0A9
:1007F0009B685B05E1D4236C23F480732364206C35
:1008000010F48050D9D1236C43F00103236470BDF0
:1008100082B00023019390F83C30012B54D0012387
:1008200080F83C3003689A68D10705D59A68D207EA
:1008300014D4002002B070479A68244942F00102A3
:100840009A60234A1268B2FBF1F202EB4202019273
:10085000019A002AEAD0019A013AF8E7026C22F4E0
:10086000E06222F0010242F4807202645A6851058B
:1008700041BF026C22F4405242F480520264026C86
:1008800012F480521CBF426C22F006024264002225
:1008900080F83C206FF022021A605A6842F08062B1
:1008A00042F020025A600B4A5268D20608D198687A
:1008B00010F04050BDD19A6842F080429A60B9E78A
:1008C000054A9342B5D1F2E70220B3E740420F0058
:1008D0000800002000230140002001400368D86C7C
:1008E000704770477047704738B5036819685A6891
:1008F0008D0704462BD5900629D5226CD1065EBF04
:10090000226C42F4007222649A6812F0405F17D1A0
:10091000A269AAB9DA6A12F4700F02D09A68520575
:100920000ED45A6822F020025A60236C23F480739C
:100930002364236CDB045EBF236C43F00103236458
:100940002046FFF7CEFF23686FF012021A6023687B
:1009500019685A684D0732D5100630D5226CD10679
:100960005EBF226C42F4005222649A6812F4401F67
:100970001ED19A6B12F4401F02D09A68520517D408
:100980005A68550514D49A6812F0405F10D1A269D4
:1009900072B95A6822F080025A60236C23F48053A3
:1009A0002364236CD8055EBF236C43F001032364EA
:1009B000204600F0C5F823686FF00C021A60236827
:1009C00019685A68C9070FD555060DD51B68D80791
:1009D0000AD5236C43F4803323642046FFF782FF5B
:1009E00023686FF001021A60236819685A68890643
:1009F0000DD552010BD5626C6FF0200542F002025A
:100A0000626420461D60FFF76EFF23681D6038BDDD
:100A1000F7B50023019390F83C30012B6AD00D68A4
:100A200004688A680123092D80F83C30AEB22AD9C7
:100A300006EB4603E7681E3B4FF0070E0EFA03FE77
:100A400027EA0E07E760E76802FA03F33B43E36037
:100A50004A68062A4FEA820325D81344676B591F58
:100A60001F238B4027EA03036363626B06FA01F1DD
:100A7000114361632D4B9C4234D0002380F83C30FD
:100A8000184603B0F0BD276905EB45034FF0070E8C
:100A90000EFA03FE27EA0E072761276902FA03F31D
:100AA0003B432361D4E70C2A0ED81344216BA3F1F6
:100AB00023021F23934021EA03032363236B06FAD7
:100AC00002F21A432263D5E71344E16A413B1F2235
:100AD0009A4021EA0202E262E26A06FA03F1114355
:100AE000E162C7E7122D07D1114A536843F480032E
:100AF0005360C2E70220C4E70E4B9D4201D0112D86
:100B0000BBD10B494A689D4242F400024A60B4D10D
:100B1000094B0A4A1B68B3FBF2F20A2353430193C1
:100B2000019B002BA9D0019B013BF8E7002001406D
:100B300000230140120000100800002040420F0076
:100B400070470000074AD36823F4E0631B041B0CC2
:100B500043F0BF63000243F4003300F4E06003435A
:100B6000D360704700ED00E0174B30B5DC68C4F38C
:100B70000224C4F10703251D042B28BF0423062DDE
:100B80004FF0010505FA03F303F1FF338CBF033C7B
:100B900000241940A14005FA04F4013C2240002839
:100BA00042EA01024FEA0212AFBF00F1604000F0DA
:100BB0000F00064BD2B2A5BF00F56140D2B21A5465
:100BC00080F8002330BD00BF00ED00E014ED00E030
:100BD0004209012300F01F0003FA00F0014B43F823
:100BE0002200704700E100E090F83530022B03D07E
:100BF00080234365012070470268052380F8353063
:100C0000136823F001031360002070472DE9F04FB3
:100C100085B00B68DFF8A081654ADFF8A0910193E9
:100C200000234FF0010E019C0EFA03FE0EEA0406AB
:100C3000B64540F0AA804C6824F01007022F16D168
:100C40004FEAD30A00EB8A0A03F0070BDAF82050C8
:100C50004FEA8B0B4FF00F0C0CFA0BFC25EA0C0C37
:100C60000D6905FA0BF545EA0C05CAF820504FEA64
:100C7000430A0325D0F800B005FA0AF5ED4304F065
:100C8000030C0BEA050B0CFA0AFC013F4CEA0B0CB7
:100C9000012FC0F800C011D8876807EA050BCF689C
:100CA00007FA0AFC4CEA0B078760476827EA0E0E32
:100CB000C4F300179F4047EA0E074760C7683D40EE
:100CC0008F6807FA0AF73D43C560E5005DD54FF030
:100CD000000BCDF80CB0D8F84470364D47F480477F
:100CE000C8F84470D8F8447007F480470397039F0E
:100CF00023F0030707F1804707F59C3703F0030C47
:100D0000D7F808A04FEA8C0C4FF00F0E0EFA0CFE2D
:100D1000A8422AEA0E0E3FD005F58065A8423DD0D4
:100D200005F58065A8423BD005F58065A84239D01D
:100D300005F58065A84237D0484537D005F50065F0
:100D4000A84214BF0725062505FA0CF545EA0E054D
:100D5000BD601568F74314F4803F0CBF3D40354338
:100D60001560556814F4003F0CBF3D403543556095
:100D7000956814F4801F0CBF3D4035439560D568DD
:100D8000A40254BF3D403543D5600133102B7FF49E
:100D900048AF05B0BDE8F08F5D46D5E70125D3E744
:100DA0000225D1E70325CFE70425CDE70525CBE7CD
:100DB000003C0140000002400038024000140240A4
:100DC0000369194214BF0120002070470AB18161F4
:100DD00070470904FBE743695940416170470000CF
:100DE0002DE9F0410D46044610B90120BDE8F0811F
:100DF000444B1A6802F00F028A4228D321688F07F9
:100E00002DD4C80740D43F4B1A6802F00F02954218
:100E100066D3226851076CD4130707D53A4A216973
:100E2000936823F4604343EAC103936000F0B0F891
:100E3000354B364A9B68C3F30313D35CD840344B1D
:100E40001860002003F098F80020BDE8F081CAB2D5
:100E50001A701B6803F00F039942C6D1CEE72A4BE4
:100E600011F0040F1EBF9A6842F4E0529A600E0718
:100E700042BF9A6842F460429A609A68A06822F081
:100E8000F00202439A60BCE762681F4B012A1DD141
:100E90001B6813F4003FA8D01B4EB36823F0030374
:100EA0001343B360FFF7BAFB41F288380746B368D3
:100EB000626803F00C03B3EB820FA4D0FFF7AEFB24
:100EC000C01B4045F3D90320BDE8F081911E0129E4
:100ED0001B6802D813F0007FDDE713F0020FDAE79A
:100EE000EAB21A701B6803F00F039D427FF47DAFD6
:100EF0008FE70549E0688B6823F4E05303438B6078
:100F00008AE700BF003C024000380240CC4B00089A
:100F100008000020044B054A9B68C3F38223D35C7E
:100F2000034A1068D840704700380240DC4B000884
:100F300008000020044B054A9B68C3F34233D35C8E
:100F4000034A1068D840704700380240DC4B000864
:100F5000080000200F2303600B4B9A6802F0030285
:100F600042609A6802F0F00282609A6802F4E052ED
:100F7000C2609B68DB0803F4E0530361034B1B680A
:100F800003F00F030B60704700380240003C024042
:100F9000204908B58B6803F00C03082B07D00C2BF5
:100FA00020D01D4A1D48042B18BF104608BD4A68B2
:100FB0004B68496813F4800314BF18481648C1F3FE
:100FC000881118BF002302F03F02A1FB0001FFF7C8
:100FD00077F9104B5B68C3F3014301335B00B0FB4F
:100FE000F3F008BD4A684B68496813F4800314BFE6
:100FF0000A480948C1F3881118BF002302F03F02D4
:10100000A1FB0001FFF75CF9024B5B68C3F30273BD
:10101000E5E700BF003802400024F40000127A0027
:1010200003682DE9F341DF07044610D423689E07C7
:1010300067D423681A0700F1B28023685B0700F1C8
:10104000D080A269002A40F0398100201EE0974B31
:101050009A6802F00C02042A10D09A6802F00C027E
:10106000082A02D15B685D0208D4904B9A6802F0AE
:101070000C020C2A0DD15A6850020AD58B4B1B6802
:101080009903D3D56368002BD0D1012002B0BDE80D
:10109000F0816268B2F5803F11D11A6842F4803263
:1010A0001A60FFF7BBFA814D06462B689A03BDD440
:1010B000FFF7B4FA801B6428F7D90320E6E77B4DDD
:1010C000B2F5A02F2B6807D143F480232B602B6847
:1010D00043F480332B60E4E723F480332B602B68E8
:1010E00023F480232B60002ADBD1FFF797FA064612
:1010F0002B689B039AD5FFF791FA801B6428F7D9D8
:10110000DBE76A4B9A6812F00C0F10D09A6802F075
:101110000C02082A02D15B685F0208D5634A936813
:1011200003F00C030C2B11D153685E020ED45F4BFD
:101130001A68950702D5E268012AA6D11A682169C2
:1011400022F0F80242EAC1021A6072E7E268584BE4
:10115000B2B101221A60FFF761FA544D06462B68BE
:10116000980707D52B68226923F0F80343EAC203E6
:101170002B605EE7FFF752FA801B0228EFD99CE74D
:101180001A60FFF74BFA494D06462B6899077FF521
:1011900050AFFFF743FA801B0228F6D98DE762694A
:1011A000444B7AB101221A60FFF738FA3F4D0646E8
:1011B0006B6F9F073FF541AFFFF730FA801B0228A6
:1011C000F6D97AE71A60FFF729FA384D06466B6FB1
:1011D00098077FF532AFFFF721FA801B0228F6D976
:1011E0006BE7324B1A6C12F0805228D101921A6CC4
:1011F00042F080521A641B6C03F080530193019BF0
:1012000001262D4D2B68D9051BD5A368274D012B31
:1012100027D12B6F43F001032B67FFF7FFF9234D15
:10122000074641F288382B6F9B0739D5002E3FF4D3
:1012300008AF1E4A136C23F08053136401E70026A5
:10124000DFE72B6843F480732B60FFF7E7F907466D
:101250002B68DA05D9D4FFF7E1F9C01B0228F7D9CA
:101260002BE7052B04D12B6F43F004032B67D0E74A
:101270002A6F22F001022A672A6F22F004022A67ED
:10128000002BCAD1FFF7CAF941F2883807462B6F05
:101290009807CBD5FFF7C2F9C01B4045F7D90CE73B
:1012A000FFF7BCF9C01B4045BDD906E70038024036
:1012B00000004742800E474200700040234DAB685B
:1012C00003F00C03082B3FF4E0AE214E0023022A6A
:1012D00033602DD1FFF7A2F907462B68990121D47D
:1012E000226AE3691343626A43EA8213E26A43EAC9
:1012F0000263226B43EA0273A26A144C5208013A59
:1013000043EA02436B6001233360FFF787F9054628
:1013100023689A013FF599AEFFF780F9401B022838
:10132000F6D9CAE6FFF77AF9C01B0228D5D9C4E678
:10133000FFF774F904462B689B017FF586AEFFF733
:101340006DF9001B0228F6D9B7E600BF003802404D
:1013500060004742036A23F001030362036A4268A4
:1013600070B584690D6824F0730425438C6823F0FC
:10137000020323430C4CA04209D004F58064A04230
:1013800005D042604A6885614263036270BDCC68E3
:101390008E6923F0080323434C6922F440723443DE
:1013A00023F004032243ECE700000140036A23F426
:1013B00080730362036A426870B5C4690D6824F0E3
:1013C000730425438C6823F4007343EA04230E4C12
:1013D000A04209D004F58064A04205D042604A686A
:1013E000C561C263036270BDCC688E6923F400637B
:1013F00043EA04234C6922F44052344323F48063CB
:1014000042EA0412EAE700BF00000140036A23F445
:101410008053036230B5046A4368C2690D6822F4E0
:10142000E64242EA05228D6824F4005444EA053479
:10143000094DA84209D005F58065A84205D0436052
:101440004B68C2610364046230BD4D6923F480437C
:1014500043EA8513F3E700BF0000014070470268CC
:10146000022380F83930136843F00103136001232D
:1014700080F83930002070470368DA6842F00102D2
:10148000DA601A6842F001021A6000207047704763
:1014900090F83830012B70B54FF002031CD080F863
:1014A00039300368012280F838209A6822F47F429C
:1014B00022F077029A600A68402A79D019D8102A57
:1014C00000F093800AD8002A00F08980012380F878
:1014D0003930002380F83830184670BD202A00F0DB
:1014E0008A80302AF2D19A6822F0700242F03702E4
:1014F00036E0702A36D01BD8502A42D0602AE5D177
:101500001C6A4D68CE6824F010041C6299691A6A3E
:1015100021F4704122F0A00242EA051241EA0631AC
:1015200099611A629A6822F0700242F0670217E02D
:10153000B2F5805F11D0B2F5005FC7D18A684D68FF
:101540009C68C9682A4324F47F4442EA012222436A
:101550009A609A6842F4804202E09A6822F0070298
:101560009A60B3E78A684D689C68C9682A4324F486
:101570007F4442EA012222439A609A6842F077024D
:10158000EEE74C68CE68196A1D6A25F001051D62F8
:101590009A6921F00A0122F0F00242EA0612214380
:1015A0009A6119629A6822F0700242F05702D7E7F6
:1015B0004C68CE68196A1D6A25F001051D629A699A
:1015C00021F00A0122F0F00242EA061221439A6158
:1015D00019629A6822F0700242F04702C0E79A68E6
:1015E00022F0700242F00702BAE79A6822F0700215
:1015F00042F01702B4E79A6822F0700242F0270224
:10160000AEE7704770477047704703681A699107E3
:1016100010B504460ED5DA6892070BD56FF00202BA
:101620001A619B6901229B07027677D0FFF7EAFFD8
:101630000023237623681A69500710D5DA6851070A
:101640000DD56FF004021A619B69022213F4407FEA
:101650002276204668D0FFF7D5FF00232376236843
:101660001A6912070FD5DA6810070CD56FF0080257
:101670001A61DB6904229907227620465AD0FFF7C7
:10168000C1FF0023237623681A69D20610D5DA68D1
:10169000D0060DD56FF010021A61DB69082213F431
:1016A000407F227620464BD0FFF7ACFF0023237605
:1016B00023681A69D10708D5DA68D20705D56FF013
:1016C00001021A61204602F0A3FB23681A69100682
:1016D00008D5DA68110605D56FF080021A61204638
:1016E00000F04FF923681A69520608D5DA685006E7
:1016F00005D56FF040021A612046FFF785FF236889
:101700001A69910622D5DA6892061FD56FF0200279
:1017100020461A61BDE8104000F032B9FFF771FFB2
:101720002046FFF770FF83E7FFF76BFF2046FFF7C8
:101730006AFF92E7FFF765FF2046FFF764FFA0E727
:10174000FFF75FFF2046FFF75EFFAFE710BD000029
:101750002E4A0368904212D0B0F1804F0FD0A2F50C
:101760007C4290420BD002F58062904207D002F595
:101770008062904203D002F5784290421DD14A68BF
:1017800023F070031343214A904204D1CA6823F422
:101790004073134328E0B0F1804FF7D01C4A9042C9
:1017A000F4D002F580629042F0D002F5806290425F
:1017B000ECD002F578429042E8D0164A9042E5D04B
:1017C00002F580629042E1D002F580629042DDD065
:1017D000A2F598329042D9D002F580629042D5D0DD
:1017E00002F580629042D1D003608B68C3620B68BF
:1017F0008362064B984206D003F58063984202D07C
:101800000123436170470B690363F9E7000001405E
:10181000000400400040014010B50446A0B190F81B
:10182000393003F0FF021BB980F83820FFF716FEAD
:10183000022384F839302068211DFFF789FF012336
:1018400084F83930002010BD012010BD10B50446C9
:10185000A0B190F8393003F0FF021BB980F83820AE
:10186000FFF715FE022384F839302068211DFFF7A9
:101870006FFF012384F83930002010BD012010BD16
:10188000036A23F010030362036A426870B5846937
:101890000D6824F4E64444EA05258C6823F020030F
:1018A00043EA04130D4CA04209D004F58064A04221
:1018B00005D042604A6885618263036270BDCC686E
:1018C0008E6923F0800343EA04134C6922F44062DA
:1018D000344323F0400342EA8402EAE70000014077
:1018E00038B590F83830012B04464FF0020018D07C
:1018F000012384F8383084F839001D460C2A0BD8AF
:10190000DFE802F0070A0A0A100A0A0A140A0A0A99
:1019100018002068FFF71EFD002084F8395084F875
:10192000380038BD2068FFF7ABFFF5E72068FFF708
:101930003DFDF1E72068FFF769FDEDE790F83830ED
:10194000012B10B54FF0020318D080F8393003682E
:101950000C685A68496822F070025A605A6822433B
:101960005A609A6822F080029A609A680A439A60E4
:10197000012380F83930002380F83830184610BD34
:10198000704770470368DA6822F49072DA605A6927
:1019900022F001025A61202380F83A30704700009B
:1019A0002DE9F0470668C2683369C16923F44053E2
:1019B00013433361044683680069F2680343606936
:1019C00022F41642034322F00C020B431343F3604C
:1019D0007369A26923F440731343B1F5004F736137
:1019E0007A4B7CD19E4203D003F580639E4244D162
:1019F000FFF7A0FA192505FB00F360684FF06409B2
:101A00004000B3FBF0F3B3FBF9F34FEA0318FFF721
:101A100091FA636868435B00B0FBF3F7FFF78AFA5B
:101A2000636868435B00B0FBF3F3B3FBF9F309FBB6
:101A30001373DB003233B3FBF9F35B0003F4F87785
:101A4000FFF778FA626868435200B0FBF2FAFFF7DA
:101A500071FA636868435B00B0FBF3F3B3FBF9F31F
:101A600009FB13A3DB003233B3FBF9F303F00703E5
:101A700043443B44B360BDE8F087FFF74BFA1925B8
:101A800005FB00F360684FF064094000B3FBF0F31E
:101A9000B3FBF9F34FEA0318FFF73CFA63686843B6
:101AA0005B00B0FBF3F7FFF735FA636868435B0050
:101AB000B0FBF3F3B3FBF9F309FB1373DB00323331
:101AC000B3FBF9F35B0003F4F877FFF723FA6268DE
:101AD00068435200B0FBF2FAFFF71CFAB9E79E42E6
:101AE00002D03B4B9E4240D1FFF724FA676819258C
:101AF0004FF0640905FB00F3BF00B3FBF7F3B3FB42
:101B0000F9F31F01FFF716FA636868439B00B0FB07
:101B1000F3F8FFF70FFA636868439B00B0FBF3F339
:101B2000B3FBF9F309FB13831B013233B3FBF9F366
:101B300003F0F008FFF7FEF9626868439200B0FB1B
:101B4000F2FAFFF7F7F9636868439B00B0FBF3F321
:101B5000B3FBF9F309FB13A31B013233B3FBF9F316
:101B600003F00F0343EA080383E7FFF7D3F967683D
:101B700019254FF0640905FB00F3BF00B3FBF7F331
:101B8000B3FBF9F31F01FFF7C5F9636868439B00D6
:101B9000B0FBF3F8FFF7BEF9636868439B00B0FB46
:101BA000F3F3B3FBF9F309FB13831B013233B3FBEC
:101BB000F9F303F0F008FFF7ADF9626868439200AB
:101BC000B0FBF2FAFFF7A6F9BDE700BF0010014035
:101BD00000140140F8B504460E4617461D4621681C
:101BE0000B6836EA030301D10020F8BD6B1CF7D067
:101BF00095B92368DA6822F4D072DA605A6922F063
:101C000001025A61202384F8393084F83A300023E5
:101C100084F838300320F8BDFEF700FDC01B854274
:101C2000DDD2E6E710B5044640B390F8393003F052
:101C3000FF021BB980F8382002F034F9226824230F
:101C400084F83930D36823F40053D3602046FFF77B
:101C5000A7FE23681A6922F490421A615A6922F099
:101C60002A025A61DA6842F40052DA600020202326
:101C7000E06384F8393084F83A3010BD012010BD9B
:101C80002DE9F0411F4690F83930202B04460D46CF
:101C900090464FD100294AD0002A48D090F83830D9
:101CA000012B47D0012380F838300023C363212360
:101CB00080F83930FEF7B2FCA4F824800646A4F878
:101CC0002680E38C9BB26BB93B46324640212046CE
:101CD000FFF780FFB0B9202384F8393084F838004A
:101CE000BDE8F081E38C013B9BB2E384A368B3F5CC
:101CF000805F32463B464FF0800120460ED1FFF711
:101D000069FF10B10320BDE8F0812B882268C3F37E
:101D100008035360236943B90235D2E7FFF75AFF3E
:101D20000028EFD123682A785A600135C9E70120DD
:101D3000BDE8F0810220BDE8F08190F83930202B19
:101D400018D1A9B1A2B190F83830012B12D0C284B9
:101D50000162828400230168C363212280F8392054
:101D6000CA6880F8383042F08002CA60184670476E
:101D7000012070470220704790F83A30202B1CD188
:101D8000C9B1C2B190F83830012B16D0C285828516
:101D900000232222C36380F83A20026881625169DD
:101DA00080F8383041F001015161D16841F49071FF
:101DB000D160184670470120704702207047704775
:101DC000704790F83A30222B10B532D18368016900
:101DD0000268B3F5805F836A1FD15268C9B9C2F344
:101DE000080223F8022B8362C48D013CA4B2C4858F
:101DF0006CB90368DA6822F49072DA605A6922F0EA
:101E000001025A61202380F83A30FFF7D9FF002001
:101E100010BDD2B223F8012BE5E721B9591C526855
:101E200081621A70E0E75268591C816202F07F02F9
:101E3000F7E7022010BD704703681A68D96870B5CB
:101E4000160704465D6907D196065AD58D0658D502
:101E5000BDE87040FFF7B5BF15F0010502D111F4E0
:101E6000907F4ED0D30705D5CE0542BFE36B43F03C
:101E70000103E363500704D51DB1E36B43F0020394
:101E8000E363930704D51DB1E36B43F00403E363FD
:101E9000160704D51DB1E36B43F00803E363E36B5E
:101EA000002B66D0950604D5880602D52046FFF79C
:101EB00088FF23685D69E26B1107204602D415F0A4
:101EC00040051AD0FFF75EFD23685A69520610D507
:101ED0005A69606B22F040025A6150B1254B03658C
:101EE000FEF782FE002844D0606BBDE87040036DB1
:101EF00018472046FFF79FFF70BDFFF79CFFE56383
:101F000070BD160627D50D0625D594F83920212A4F
:101F10002FD1A268B2F5805F226A17D11188C1F370
:101F200008015960216979B902322262E28C013AD2
:101F300092B2E284EAB9DA6822F08002DA60DA6802
:101F400042F04002DA6070BD0132EEE7511C2162BE
:101F500012785A60EAE750060BD54A0609D5DA68C6
:101F600022F04002DA60202384F839302046FFF75F
:101F700026FF70BD791F000808B5806B0023C3855C
:101F8000C384FFF758FF08BD08B500F0B1FE00207C
:101F900008BD30B5B0F90840028A0B4690E822002F
:101FA00085B0842C14BF0334002403A8019000944E
:101FB000284600F08DFD01280CBF0398002005B0D5
:101FC00030BD08B5002808BF012000F0E7FF002061
:101FD00008BD012000F032BC08B501F069FA012803
:101FE00003D0BDE8084000F005B908BD00F10803C2
:101FF00043604FF0FF32C3600361002382600360DF
:10200000704700230361704743684B609A688A6099
:102010009A685160996003680861013303607047F2
:102020000A68531C30B50AD103695A684A60916046
:102030008B605960036808610133036030BD00F1B3
:1020400008035C682568AA42EFD32346F9E7416894
:10205000826803698A60826851605968884208BF53
:102060005A60002202611868013818607047000049
:102070000A4B1B68013308D04FF0500383F31188DB
:10208000BFF36F8FBFF34F8FFEE74FF0500383F323
:102090001188BFF36F8FBFF34F8FFEE7040000205E
:1020A00006480068006880F3088862B661B6BFF32E
:1020B0004F8FBFF36F8F00DF00BF000008ED00E01F
:1020C000DFF80C00016841F4700101607047000006
:1020D00088ED00E04FF0807340F8043C074B40F877
:1020E0000C3C21F001016FF0020340F8081C40F89D
:1020F000202C40F8243C4438704700BF7120000871
:10210000074B19680868B0E8F04F80F30988BFF3FF
:102110006F8F4FF0000080F311887047AFF300809D
:10212000AC3C00204FF0500383F31188BFF36F8F56
:10213000BFF34F8F0A4A13680133012B13600DD18F
:10214000084B1B6813F0FF0F08D04FF0500383F3C8
:102150001188BFF36F8FBFF34F8FFEE7704700BF4B
:102160000400002004ED00E0084A136843B94FF072
:10217000500383F31188BFF36F8FBFF34F8FFEE7D8
:10218000013B13600BB983F31188704704000020F2
:10219000EFF30980BFF36F8F154B1A681EF0100F15
:1021A00008BF20ED108A20E9F04F10604DF8043D83
:1021B0004FF0500080F31188BFF34F8FBFF36F8F44
:1021C00000F04AFF4FF0000080F3118808BC196846
:1021D0000868B0E8F04F1EF0100F08BFB0EC108A8E
:1021E00080F30988BFF36F8F704700BFAFF30080A3
:1021F000AC3C002008B54FF0500383F31188BFF3C7
:102200006F8FBFF34F8F00F0BFFD18B1034B4FF03E
:1022100080521A60002383F3118808BD04ED00E0AA
:10222000064B4FF47A721B68B3FBF2F3044A013B8E
:102230001360044B07221A60704700BF080000209B
:1022400014E000E010E000E0314B324A13B51968A9
:10225000914208D14FF0500383F31188BFF36F8F81
:10226000BFF34F8FFEE71A682B4B9A4208D14FF00D
:10227000500383F31188BFF36F8FBFF34F8FFEE7D7
:10228000264B1A78D2B20192FF221A701B78244A88
:10229000DBB28DF803309DF8033003F05003137068
:1022A000204B07221A6000219DF80300000602F16E
:1022B000FF3423D401B11A601A68120202F4E062FA
:1022C0001A60019B154ADBB21370174B1A6842F46F
:1022D00070021A601A6842F070421A60FFF7A0FF9D
:1022E000124B00221A60FFF7EBFE114A136843F00D
:1022F00040431360FFF7D4FEFFF7BAFE9DF80320BA
:102300005200D2B28DF8032001212246CCE700BF53
:1023100000ED00E071C20F4170C20F4100E400E027
:102320008C0000209000002020ED00E00400002040
:1023300034EF00E010B50F4B1A68824218D35C6886
:102340001919884201BF4168184609195960446843
:1023500001198A4207D1084909688A421FBF51689A
:102360001268091941609842026018BF186010BDD8
:102370001346E1E7A43C0020940000202DE9F04141
:10238000044600F0F3FC3E493E4D0B680BBB3E4A51
:1023900056071FBFD01D20F0070002F570531B1A0F
:1023A00014BF02464FF470531344083B23F0070355
:1023B000364E0B6000207060326058601860981ACA
:1023C0001360334B50601860324B18604FF000437D
:1023D0002B602F68274216D1002C41D004F108034E
:1023E00058071CBF23F00703083363B1294A166856
:1023F000B342904607D8254A15686868834204D8D6
:1024000009688D4207D100242AE02C68002CF7D0FF
:102410002A462546F1E7296814681160C21A102A75
:102420000FD9E818410708D04FF0500383F3118803
:10243000BFF36F8FBFF34F8FFEE742606B60FFF714
:1024400079FF13496B680868F61A1F4386424FF0FC
:102450000003C8F8006038BF0E6008346F602B605E
:1024600000F024FD630708D04FF0500383F3118878
:10247000BFF36F8FBFF34F8FFEE72046BDE8F081BB
:1024800094000020983C002098000020A43C0020EC
:10249000A03C00209C3C002010B5044670B3184AB4
:1024A00050F8043C1268134208D14FF0500383F3F4
:1024B0001188BFF36F8FBFF34F8FFEE750F8081CF2
:1024C00041B14FF0500383F31188BFF36F8FBFF317
:1024D0004F8FFEE723EA020340F8043C00F046FC7D
:1024E000084A54F8043C1168A4F108000B44136036
:1024F000FFF720FFBDE8104000F0D8BC10BD00BFC2
:10250000983C00209C3C002070B51546026C866B00
:10251000044642B905689DB9406801F01FF865603E
:102520000136A66370BD6DB9806801F021FEA36815
:10253000226C13446268A360934201D32368A360B2
:102540000020EDE7C06801F013FE236CE26821680B
:102550005B421A448A42E2603EBF62689B18E360B5
:10256000022DEDD10EB1013EEAE73046D8E7034631
:1025700010B41A6C084662B1D9685C681144A14273
:10258000D96024BF1968D960D9685DF8044B01F09F
:10259000EFBD5DF8044B704770B50446FFF7C2FD10
:1025A00094F8455004F124066DB2002D14DCFF238D
:1025B00084F84530FFF7D8FDFFF7B4FD94F8445098
:1025C00004F110066DB2002D12DCFF2384F84430B4
:1025D000BDE87040FFF7C8BD636A002BE7D0304606
:1025E00000F002FE08B100F08BFE013D6DB2DCE7A9
:1025F0002369002BE9D0304600F0F6FD08B100F069
:102600007FFE013D6DB2DEE738B50D46044640B9A8
:102610004FF0500383F31188BFF36F8FBFF34F8FD9
:10262000FEE7FFF77FFD206CE36B2268A260434367
:10263000D1181B1A13446160E3600021FF23A163DA
:1026400084F8443084F8453095B9236963B104F1C6
:10265000100000F0C9FD38B10A4B4FF080521A60EB
:10266000BFF34F8FBFF36F8FFFF77EFD012038BDA3
:1026700004F11000FFF7BAFC04F12400FFF7B6FCE8
:10268000F2E700BF04ED00E0F8B50D461746064638
:1026900040B94FF0500383F31188BFF36F8FBFF33E
:1026A0004F8FFEE748435030FFF768FE044648B1BD
:1026B00055B92060E663256401212046FFF7A4FF99
:1026C00084F84C702046F8BD00F150030360F1E738
:1026D0002DE9FF47894601921F46044640B94FF055
:1026E000500383F31188BFF36F8FBFF34F8FFEE763
:1026F000002940F08880036C002B00F084804FF0AC
:10270000500383F31188BFF36F8FBFF34F8FFEE742
:10271000019E002E00F082804FF0500383F3118859
:10272000BFF36F8FBFF34F8FFEE7019D1DB9FFF71A
:102730001BFD002058E016B902A800F097FDFFF736
:1027400013FD00F013FBFFF7EDFC94F84430FF2B72
:1027500008BF84F8448094F84530FF2B08BF84F804
:102760004580FFF701FD01A902A800F08FFD0028B8
:1027700043D1FFF7D7FCA66BE56BFFF7F5FCAE4244
:1027800035D1019904F1100000F014FD2046FFF747
:1027900003FF00F08BFB38B94FF08053CAF80030CC
:1027A000BFF34F8FBFF36F8F0126FFF7BBFCA26B08
:1027B000E36B9A4201D3022FB7D13A4649462046ED
:1027C000FFF7A2FE636A1BB104F1240000F00CFDC8
:1027D00038B1194B4FF080521A60BFF34F8FBFF3DF
:1027E0006F8FFFF7C1FC012004B0BDE8F0872046E1
:1027F000FFF7D2FE00F05AFBD6E72046FFF7CCFEEB
:1028000000F054FB95E7022F02D1E36B012B0AD1B4
:1028100000F04EFE00283FF47BAF00264FF000088A
:10282000DFF814A0C1E74FF0500383F31188BFF322
:102830006F8FBFF34F8FFEE704ED00E010B5024647
:1028400000210120FFF720FF044638B10023436038
:102850000360C3601A461946FFF73AFF204610BDD1
:102860002DE9FF47884601929946044640B94FF04A
:10287000500383F31188BFF36F8FBFF34F8FFEE7D1
:10288000002940F0A580036C002B00F0A1804FF0E0
:10289000500383F31188BFF36F8FBFF34F8FFEE7B1
:1028A000019E002E00F09A804FF0500383F31188B0
:1028B000BFF36F8FBFF34F8FFEE7636AE660002BB5
:1028C0006DD004F124005FE0019D1DB9FFF74CFCC1
:1028D000284667E016B902A800F0C8FCFFF744FCE0
:1028E00000F044FAFFF71EFC94F84430FF2B08BFB9
:1028F00084F8447094F84530FF2B08BF84F8457085
:10290000FFF732FC01A902A800F0C0FC002852D158
:10291000FFF708FCA56BFFF727FC002D45D12368C6
:1029200033B9FFF7FFFB606800F0D2FDFFF71CFC36
:10293000019904F1240000F03DFC2046FFF72CFE35
:1029400000F0B4FA38B94FF08053CAF80030BFF342
:102950004F8FBFF36F8F0126FFF7E4FBA56B002DB0
:10296000B2D041462046E668FFF701FEB9F1000FFC
:10297000A3D12368013DA56313B900F097FE606001
:10298000236963B104F1100000F02EFC38B1154B3F
:102990004FF080521A60BFF34F8FBFF36F8FFFF776
:1029A000E3FB012004B0BDE8F0872046FFF7F4FD0B
:1029B00000F07CFACFE72046FFF7EEFD00F076FA54
:1029C000FFF7B0FBA56BFFF7CFFB002DC3D17FE76F
:1029D00000F06EFD00283FF463AF00260027DFF80B
:1029E00004A0B9E704ED00E010B5044601F0F8FBDF
:1029F0002046FDF70DFC20230E2803D90023235485
:102A0000204410BD23540130F6E70000064A136845
:102A10001968064B19B94FF0FF321A6070471268F7
:102A2000D268D2685268F8E7B03C00208C3D0020A4
:102A3000F8B51B4B1B4E1D680446306804300F462A
:102A4000FFF705FB334640B93168174EC96A326853
:102A50000120884022EA00023260621C07D137B1AF
:102A6000196812480431BDE8F840FFF7CDBA2C448C
:102A70001A68A542546007D90D4A10681968BDE864
:102A8000F8400431FFF7CCBA0A4A106819680431DB
:102A9000FFF7C6FA084B1A68944238BF1C60F8BDAD
:102AA000D43D0020AC3C00205C3D0020AC3D00202B
:102AB000B43C0020B03C00208C3D00204FF050037F
:102AC00083F31188BFF36F8FBFF34F8FFEE70000D2
:102AD0002DE9F84F4FEA820A804650460D46994646
:102AE0000B9EFFF74BFC0746002800F09F806020FC
:102AF000FFF744FC0446002800F095805246076327
:102B0000A521384601F03FFB236BAAF1040A9A4441
:102B10002AF0070A6B1E04F134020F35597802F8C7
:102B2000011B13F8011F09B1AB42F7D10A9D062D15
:102B300028BF06254FF0000B271DE562E5643846E7
:102B400084F843B0C4F850B0FFF75BFAC5F107054D
:102B500004F11800FFF755FAC4F858B02461A561D4
:102B60006462C4F854B084F85CB04A4641465046AA
:102B7000FFF7B0FA206006B13460FFF7D3FA324BAA
:102B8000324E1A68DFF8F08001321A603568002D85
:102B90004FD134601B68012B1DD108EB05001435A3
:102BA000FFF724FA8C2DF8D1DFF8D090284D484655
:102BB000FFF71CFA2846FFF719FA2648FFF716FA1E
:102BC0002548FFF713FA2548FFF710FA244BC3F8FE
:102BD0000090244B1D60244A24491368086801337F
:102BE0001360E26A6364012505FA02F303431420CB
:102BF0000B6000FB02803946FFF706FAFFF7B4FAD4
:102C00001B4B1B6863B13368DA6AE36A9A4207D2E6
:102C1000184B4FF080521A60BFF34F8FBFF36F8F86
:102C20002846BDE8F88F3846FFF736FC4FF0FF35F1
:102C3000F6E70F4B1B68002BCDD13368DA6AE36AE5
:102C40009A4298BF3460C6E7483D0020AC3C002063
:102C5000743D0020943D0020C03D0020AC3D00208C
:102C6000B03C0020B43C0020583D00205C3D0020DA
:102C7000A83D002004ED00E0B83C0020603D0020AD
:102C800038B5054608B9FFF719FF144B1B68984281
:102C90001DD0FFF747FA6C69FFF766FA104B1B6807
:102CA0009C4216D00F4B1B689C4212D00E4B9C428C
:102CB00005D1AB6A002B14BF0220032038BD0B4B9B
:102CC0009C4208D0002C0CBF0420012038BD0020FD
:102CD00038BD022038BD042038BD00BFAC3C002008
:102CE000B03C0020B43C0020AC3D0020C03D0020A2
:102CF00013B5184B019300240094234680221649F3
:102D00001648FFF7E5FE012816D14FF0500383F374
:102D10001188BFF36F8FBFF34F8F114B4FF0FF320E
:102D20001A60104B1860104B1C6000F079FD02B067
:102D3000BDE81040FFF788BA013008D14FF05003CA
:102D400083F31188BFF36F8FBFF34F8FFEE702B09D
:102D500010BD00BF883D0020A44A0008E52F0008F0
:102D60008C3D0020A83D0020D43D0020024A13687D
:102D700001331360704700BF543D0020014B1868B9
:102D8000704700BFD43D00202DE9F84F3C4B1B6835
:102D9000002B53D13B4B1C6801341C60BCB93A4B2F
:102DA0001A68126842B14FF0500383F31188BFF3E1
:102DB0006F8FBFF34F8FFEE7344A196810681860B1
:102DC0001160334A136801331360FFF71FFE314D62
:102DD000314F2B689C424FF0000B3ED3DFF8A880A8
:102DE000DFF8C490D8F80020126872BB4FF0FF32B1
:102DF0002A6032E006F1040A5046FFF728F9B16A6A
:102E000019B106F11800FFF722F9F06AD9F800307D
:102E1000012202FA00F11943204BC9F800104FF0CB
:102E2000140E51460EFB0030FFF7EEF83868F16AD9
:102E3000C26A914228BF4FF0010BD3E7184A1368CA
:102E4000013313604FF0000B11E0D8F80020D26876
:102E5000D66871688C42CDD229603A680F4BD16A2E
:102E600014224A439A58022A28BF4FF0010B0D4AF8
:102E70001268002A18BF4FF0010B5846BDE8F88FC2
:102E8000543D0020D43D0020B03C0020B43C002044
:102E9000903D00208C3D0020AC3C0020B83C002040
:102EA000503D0020D83D00205C3D00202DE9F84336
:102EB000314C236843B94FF0500383F31188BFF3BB
:102EC0006F8FBFF34F8FFEE7FFF72CF92368013BAD
:102ED000236024682CB10024FFF746F92046BDE8A2
:102EE000F883264B1B68002BF5D0DFF8A890244F01
:102EF000DFF8A480D9F80030E3B90CB1FFF786FD04
:102F0000204D2C6844B1204E0127FFF73DFF00B152
:102F10003760013CF9D12C601B4B1B68002BDAD0C9
:102F20001A4B4FF080521A60BFF34F8FBFF36F8F71
:102F30000124D1E7D9F80C30DC68261D04F1180013
:102F4000FFF785F83046FFF782F8E26A3968012515
:102F500005FA02F314200B4300FB028031463B606C
:102F6000FFF752F80A4BE26A1B68DB6A9A4224BFF9
:102F7000054B1D60BEE700BF543D0020483D0020CA
:102F80005C3D0020503D0020D83D002004ED00E0D5
:102F9000AC3C0020943D0020B83C002008B540B96E
:102FA0000E4B4FF080521A60BFF34F8FBFF36F8FFD
:102FB00008BD0B4B196841B14FF0500383F31188E2
:102FC000BFF36F8FBFF34F8FFEE7FFF7CFFEFFF723
:102FD0002FFDFFF76BFF0028E2D008BD04ED00E0F5
:102FE000543D002008B5174E174C236863B9174BA2
:102FF0001B68012BF8D9164B4FF080521A60BFF3B3
:103000004F8FBFF36F8FEFE7FFF7B0FE3568FFF725
:103010004DFF002DE9D0FFF785F8F368DD68281D26
:10302000FFF715F80B4A1368013B13602368013B57
:103030002360FFF799F8286BFFF72EFA2846FFF771
:103040002BFAD2E7C03D00204C3D0020B83C0020C8
:1030500004ED00E0483D00201D4B1A681D4B10B5E3
:1030600012B101221A6010BD1A6000F0DBFB1A4A8F
:103070001468A04205D9194B19684B6D1B1B0344FA
:103080004B65174B10601B68B3FA83F3DBB2C3F1D7
:103090001F03142213495A4388188C5844B94FF01F
:1030A000500383F31188BFF36F8FBFF34F8FFEE799
:1030B00044680832646844600A44944204BF626809
:1030C0004260142202FB03135B68DA68034BC9E712
:1030D000543D0020D83D0020443D0020AC3C002061
:1030E0005C3D0020B83C002070B50446294EFFF737
:1030F00019F804B93468251D2846FEF7A8FF60B901
:10310000E06A254B142141435B5833B9234901221E
:103110000B68824023EA02030B60A36A1BB104F12F
:103120001800FEF794FF29461D4D1E48FEF76CFF60
:10313000FFF71AF82A682AB1FEF7F4FFFFF766FCDA
:10314000FFF712F833689C4222D12B68A3B1164BCB
:103150001B6843B14FF0500383F31188BFF36F8FA7
:10316000BFF34F8FFEE7114B4FF080521A60BFF351
:103170004F8FBFF36F8F70BD0D4A0A4912680968FF
:10318000914201D1336070BDBDE87040FFF764BF6C
:1031900070BD00BFAC3C0020B83C00205C3D00206E
:1031A000A83D0020AC3D0020543D002004ED00E08F
:1031B000483D002010B50C4640B94FF0500383F352
:1031C0001188BFF36F8FBFF34F8FFEE7054B196870
:1031D0001831FEF725FF20460121BDE81040FFF71A
:1031E00027BC00BFAC3C002038B5C368DC6844B9DC
:1031F0004FF0500383F31188BFF36F8FBFF34F8FEE
:10320000FEE704F118052846FEF721FF114B1B6865
:10321000E3B9251D2846FEF71AFF0F49E26A086840
:103220000123934003430B600C4B1420294600FB01
:103230000230FEF7E9FE0A4BE26A1B68DB6A9A423B
:1032400083BF084B01201860002038BD294606487E
:10325000EFE700BF543D00205C3D0020B83C00205B
:10326000AC3C0020D83D0020943D002008B508B9B2
:10327000FFF724FC034B1B680360034B1B68436090
:1032800008BD00BF903D0020D43D002038B50D465C
:10329000044640B94FF0500383F31188BFF36F8F9A
:1032A000BFF34F8FFEE741B94FF0500383F311880E
:1032B000BFF36F8FBFF34F8FFEE7FEF733FF0E4B69
:1032C00019682B685A1C10D00C4A2068126890426A
:1032D000626801D091420DD2881A83420AD95B1AE2
:1032E00013442B602046FFF7C1FF0024FEF73CFF8C
:1032F000204638BD0124F9E7D43D0020903D002050
:10330000014B01221A607047D83D00202DE9F041A1
:103310000C4617469846064658BB1B4B1D68256051
:1033200005F134036360EB6A23612B6BE3616B6C23
:10333000A360237B032B07D1FFF718FDAB6A0BB10A
:1033400002232373FFF7B2FDEB6C6361B8F1050F45
:103350006B6DA3610FD084F80C808FB1296B0A4686
:10336000531A12F8010BA528FAD09B082384BDE854
:10337000F0810546D3E73046FFF782FC2073ECE787
:103380002784BDE8F08100BFAC3C00202DE9F84F58
:103390000D6881460C46934615B34B685B684B60DD
:1033A00001F10807BB4204BFCB684B604B68D3F800
:1033B0000C8000254FF0240A63685B6863609F42BD
:1033C00004BFE36863606368DE680AFB05915B46DF
:1033D00001223046FFF79AFFB04505F10105EBD118
:1033E0002846BDE8F88F00002DE9F843054617464A
:1033F000FFF7BCFC204B1B688B423AD84FF000080B
:10340000DFF888904446242608F1780106FB045032
:1034100001224944FFF7BAFFA8F1140818F18C0FF4
:103420000444F1D1154B0222196806FB0450FFF742
:10343000ADFF134B04441968022206FB0450FFF74A
:10344000A5FF044404220F4906FB0450FFF79EFF2A
:10345000044406FB045003220B49FFF797FF044482
:1034600017B100F0DFF93860FFF720FD2046BDE816
:10347000F8830024F8E700BF483D0020B03C00205E
:10348000B43C0020C03D0020AC3D0020B83C0020F2
:1034900008B9064B1868026B1346981A13F8011BFB
:1034A000A529FAD0C0F38F00704700BFAC3C0020C4
:1034B000054B1B6833B1054B1B68002B0CBF02206A
:1034C0000020704701207047A83D0020543D002097
:1034D0002DE9F0410446002838D01D4DC36A2A6802
:1034E000D26A934232D282691A4E002AA1BF2A6858
:1034F000D26AC2F1070282611427426907FB0363A3
:103500009A4220D100F104084046FEF7A0FD124A7D
:1035100048B9E06A4743F3592BB913680121814048
:1035200023EA010313602B681168D86AE062012363
:1035300083400B4313601423414603FB0060BDE846
:10354000F041FEF761BD2B68DB6AC362BDE8F08124
:10355000AC3C0020B83C00205C3D0020F8B504469F
:1035600008B90020F8BD224B1B68984208D04FF0E4
:10357000500383F31188BFF36F8FBFF34F8FFEE7C4
:10358000036D43B94FF0500383F31188BFF36F8F7E
:10359000BFF34F8FFEE7C16AC26C013B91420365E6
:1035A000DFD0002BDDD1051D2846FEF750FD114E62
:1035B000114A50B9E76A1421794373582BB913683B
:1035C0000120B84023EA00031360E36CE362C3F117
:1035D0000701A1611168012404FA03F00843106097
:1035E000142000FB03602946FEF70EFD2046F8BDBF
:1035F000AC3C0020B83C00205C3D00202DE9F043AD
:10360000274B85B01A680192002707700546186895
:1036100024246043FEF7B2FE064668B103AA01996E
:10362000FFF7E2FE039B01906422B3FBF2F30393E6
:103630002BB93046FEF730FF05B0BDE8F083DFF868
:103640006480DFF864900297029A019B9A42F0D25C
:10365000029B04FB036328469F69039BB7FBF3F7B8
:10366000029B04FB03635968FFF7BEF905467FB16F
:10367000029A04FB02623B469269494600F08CFDC7
:103680002846FCF7C5FD029B013305440293DBE7A6
:10369000029B04FB036341469A6900F07DFDEFE75E
:1036A000483D0020984A00088C4A0008044B1A68DC
:1036B0001AB119680A6D01320A651868704700BFAF
:1036C000AC3C00202DE9F0411F4C1E4680460F46C1
:1036D0001546FEF727FD236893F85C30022B14D0C3
:1036E00023689A6D22EA08029A652368012183F80B
:1036F0005C1056B13046FFF79BF9144B4FF08052E7
:103700001A60BFF34F8FBFF36F8FFEF72DFDFEF7EB
:1037100009FD15B123689B6D2B60236893F85C301D
:10372000012B1FBF2368996DB943996523684FF03A
:10373000000214BF0125002583F85C20FEF714FD6C
:103740002846BDE8F08100BFAC3C002004ED00E05D
:10375000F8B50F4616461D46044640B94FF05003D3
:1037600083F31188BFF36F8FBFF34F8FFEE7FEF730
:10377000D9FC0DB1A36D2B6094F85C500223721E2E
:10378000EDB284F85C30032A0AD8DFE802F00206C2
:103790000410A16D0F43A76502E0A36D0133A3657B
:1037A000012D08D00125FEF7DFFC2846F8BD022DCB
:1037B000F1D10025F7E7261D3046FEF748FC1449F5
:1037C000E26A086805FA02F303430B60114B142008
:1037D00000FB02303146FEF717FCA36A43B14FF0FD
:1037E000500383F31188BFF36F8FBFF34F8FFEE752
:1037F000094BE26A1B68DB6A9A42D3D9074B4FF048
:1038000080521A60BFF34F8FBFF36F8FCBE700BFBB
:103810005C3D0020B83C0020AC3C002004ED00E002
:1038200070470000034B044A1B6810685B6A03EB97
:1038300000407047F43D0020DC3D002008B5054CF9
:1038400020462021FDF7C7FA4FF47A70FEF7B9FB46
:10385000F6E700BF0000024007B5134C134D0122EC
:1038600001A92046FEF788FAD0B99DF8043003F08C
:10387000DF02482A01D03F2B06D10D480122002348
:1038800011460068FFF764FF9DF8043003F0DF0382
:10389000542B05D10023012210212868FFF758FF7F
:1038A0000120FEF78EFBDAE7903E0020343E002038
:1038B000303E00208FB51A4A1A4E516810681A4FD0
:1038C000DFF8708001AB03C31189927A19809A7076
:1038D0004FF400513046FDF773FA0446E0B9034651
:1038E00001221021114D3868FFF732FFD8F800008F
:1038F000FFF7FAFB23464FF0FF3221462868FEF718
:10390000AFFF0B2201A90A48FEF717FA2346224609
:1039100021462868FEF7DCFEAF20FEF752FBD7E712
:10392000A94A000800080240D03E00208C3E00203A
:10393000903E0020F03D002000B599B05B22114977
:10394000114C01A800F014FC4FF0FF336A46FF2130
:103950000020FFF7B7FE009BDB07F5D500231946D3
:103960004FF0FF322068FEF77BFF01A95B2207487A
:10397000FEF7E3F900231A4619462068FEF7A8FE71
:10398000E2E700BFB44A00088C3E0020903E0020D1
:1039900007B5074C4FF0FF3301AAFF210020FFF7C6
:1039A00091FE019BDB06F5D52046FCF731FFF1E7E0
:1039B000383E002013B54FF0FF3301AAFF2100204D
:1039C000FFF780FE019BDB06F5D5054C2046202144
:1039D000FDF701FA4FF4FA70FFF7E0FAF6E700BFDF
:1039E000000002402DE9F04FDFF8E0B02D4CC3B0ED
:1039F0004FF47A70FFF7D2FA1AA8FFF7FFFD1AAA60
:103A0000594606A800F0C8FB274B1868FFF740FD91
:103A1000264B05461868FFF73BFD254B0646186800
:103A2000FFF736FD234B07461868FFF731FD224BA1
:103A300080461868FFF72CFD204B81461868FFF779
:103A400027FD1F4B82461868FFF722FD33462A46A2
:103A500004901C498DE8800706A800F09DFB06A88D
:103A6000FCF7D6FB4FF47A7382B206A92046FEF724
:103A700007F9FFF783F91449024606A800F08CFB0A
:103A80004FF47A70FFF78AFA06A8FCF7C1FB4FF4EF
:103A90007A7382B206A92046FEF7F2F80120FEF7FB
:103AA00090FAA5E7903E0020F03D0020803E0020E7
:103AB000843E0020343E0020303E0020D03E0020D6
:103AC000883E00201B4B0008714B00080F4B00087C
:103AD00030B595B03422002107A800F054FB002136
:103AE000142202A800F04FFB00251C4B00951A6C15
:103AF00042F080521A641B6C194A03F08053009301
:103B0000009B0195136823F4404343F48043136002
:103B100013680E9503F440430193019B01230A931C
:103B200010230B930F934FF4A8730224109307A84C
:103B30000423119307940D9412941394FDF770FAD3
:103B40000F23029321464FF4805302A80394049557
:103B500005930695FDF744F915B030BD00380240D5
:103B60000070004080B5AAB0FCF732FDFFF7B0FF4F
:103B70001422002123A8002400F005FB8F4B0194A0
:103B80001A6B8F488F4D42F004021A631A6B02F0D1
:103B900004020192019A02941A6B42F080021A63A5
:103BA0001A6B02F080020292029A03941A6B42F09E
:103BB00001021A631A6B02F001020392039A049441
:103BC0001A6B42F002021A631B6B03F002032246D7
:103BD00004932021049BFDF7F9F84FF4005323933D
:103BE00023A9794B7948249301262594FDF70EF8F3
:103BF000202323A972482393249625942694FDF725
:103C000005F87348734A84604FF4E13380E80C0090
:103C10000C234361C46004618461C461FEF702F84F
:103C2000324621462620FCF79FFF2620FCF7D0FFD6
:103C30001022214623A800F0A6FA6749AE614FF48E
:103C4000403385E80A002846644BAB62EE616E6142
:103C5000AC602C612C62EC62EC602C63FCF7E4FC41
:103C60005F4B239323A9284624962594FCF7D0FE86
:103C7000224621461220FCF777FF1220FCF7A8FF0E
:103C8000102221461EA800F07EFA1C22214623A8FD
:103C9000544D19941A9400F076FA5348AC605323AB
:103CA00085E809004FF6FF732846EB602C61FDF7AD
:103CB000B3FD4FF480531EA928461E93FDF7E8FB81
:103CC0002846FDF7C3FD19A9284619941A94FDF753
:103CD00035FE3023224623A9239328460A23249322
:103CE00025942794FDF7FCFD284600F01BF9284693
:103CF000FDF7B5FB2AA83D4D40F8A84DFEF769F940
:103D00003B4B18600FCD05AF0FC72E46214656F826
:103D1000043B3B6005A8FEF73CF9364B18600FCE1C
:103D20000AAF0FC733683B6021460AA8FEF731F996
:103D3000314B05F1180718600FCF0FAE0FC63B6867
:103D4000336021460FA8FEF724F92C4B05F12C0710
:103D500018600FCF14AE0FC63B683360214614A81D
:103D6000FEF717F9264B05F1400718600FCF19AE83
:103D70000FC63B683360214619A8FEF70AF9214BAC
:103D800005F1540718600FCF1EAE0FC63B683360B5
:103D900021461EA8FEF7FDF81B4B683518600FCDB5
:103DA00023AE0FC62B683360214623A8FEF7F1F837
:103DB000164B1860FEF7E8F8FEE700BF0038024037
:103DC00000000240383E00200000211000080240A0
:103DD000903E002000440040002001400100000F00
:103DE00012000010F43D002000080040004A0008C6
:103DF0008C3E0020F03D0020803E0020843E0020CC
:103E0000343E0020303E0020D03E0020883E00207E
:103E10000268034B9A4201D1FCF7F4BB704700BF24
:103E20000010004007B50F4B00220092596C41F47E
:103E300080415964596C01F48041009100990192CC
:103E4000196C41F0805119641B6C03F0805301938D
:103E50000F216FF00100019BFCF786FE03B05DF8B7
:103E600004FB00BF0038024007B50D4B02689A42C0
:103E700013D103F58C3300220192596C41F4807107
:103E800059645B6C03F48073019312200521019B3C
:103E9000FCF76AFE1220FCF79BFE03B05DF804FB02
:103EA0000020014010B5044688B01422002103A868
:103EB00000F069F92268194B9A422CD103F5FA33C4
:103EC000002401941A6C164842F400321A641A6CE9
:103ED00002F400320192019A02941A6B42F001023C
:103EE0001A631B6B03F001030293029B0C230393E1
:103EF00002230493012305930323069303A90723B5
:103F00000793FCF783FE262022460521FCF72CFEB2
:103F10002620FCF75DFE08B010BD00BF0044004045
:103F20000000024010B5044686B01422002101A80A
:103F300000F029F922680D4B9A4214D10023009316
:103F40000B4B0C481A6B42F002021A631B6B03F016
:103F500002030093009B4023019301A902230293D3
:103F60000593FCF753FE06B010BD00BF00080040EB
:103F7000003802400004024030B5014689B00022FA
:103F80003620FCF7F1FD3620FCF722FE0025154B0C
:103F900002951A6C144C42F010021A641B6C03F068
:103FA0001003029301A903A8029BFCF7D3FFFCF7BF
:103FB000B1FF0E4B236040F2E733E36040000C4B4F
:103FC000B0FBF3F00138606020462561A560FDF785
:103FD00023FC20B92046FDF74FFA09B030BD01207F
:103FE000FBE700BF00380240D43E00200010004034
:103FF00040420F007047FEE7FEE7FEE7FEE708B528
:10400000FCF700FBBDE80840FDF7E6BF7047000085
:104010001FB50E48FCF768FC00210C48FCF7A8FB14
:1040200080B90A48FCF75AFC09490246684600F084
:10403000B3F86846FCF7ECF8052382B269460548F8
:10404000FDF71EFE05B05DF804FB00BF383E002002
:10405000C74B0008903E00200148FDF7EDBE00BFB1
:10406000903E00200148FDF7D0BA00BFD43E0020AA
:10407000034A0448136801331360FDF7C6BA00BF52
:10408000DC3D0020F43D00200F49D1F8883043F496
:104090007003C1F888300D4B1A68002042F001020D
:1040A0001A6098601A6822F0847222F480321A60D2
:1040B000074A5A601A6822F480221A60D8604FF0CA
:1040C00000638B60704700BF00ED00E000380240E5
:1040D00010300024DFF834D0002103E00C4B5B5893
:1040E000435004310B480C4B42189A42F6D30B4A0A
:1040F00002E0002342F8043B094B9A42F9D3FFF750
:10410000C3FF00F011F8FFF72DFD704700000220FB
:10411000284C0008000000207000002070000020E3
:10412000143F0020FEE7000070B50D4E0D4CA41B9F
:10413000A4100025A54209D10B4E0C4C00F054FCF4
:10414000A41BA4100025A54205D170BD56F825304A
:1041500098470135EEE756F8253098470135F2E7E4
:10416000204C0008204C0008204C0008244C00087B
:1041700010B5431E0A44914200D110BD11F8014B05
:1041800003F8014FF7E702440346934200D170471A
:1041900003F8011BF9E700000EB400B59CB04FF422
:1041A00002711DABADF81410029006906FF0004143
:1041B0000A48049107914FF6FF7153F8042BADF8AC
:1041C00016100068019302A900F06EF8029B00220D
:1041D0001A701CB05DF804EB03B070470C000020AF
:1041E000034611F8012B03F8012B002AF9D170477F
:1041F0002DE9F0478E689E4282460C4691469846CD
:1042000035D88A8912F4906F31D0256809696F1A00
:104210006569022305EB450595FBF3F508F10103FC
:104220003B449D4238BF1D46530531D5294600F019
:104230002DFB064650B90C23CAF80030A38943F081
:104240004003A3814FF0FF30BDE8F0873A46216973
:10425000FFF78EFFA38923F4906343F08003A381CB
:10426000266165613E44ED1B2660A56046464645D5
:1042700028BF464632464946206800F09FFAA368A8
:104280009B1BA36023681E4426600020BDE8F087C6
:104290002A4600F059FB06460028E1D12169504624
:1042A00000F0A6FAC7E700002DE9F04F9DB0804668
:1042B00003938B891C060D4616460FD50B696BB907
:1042C000402100F0E3FA2860286128B90C23C8F8DF
:1042D00000304FF0FF30C5E040236B6100230993AD
:1042E00020238DF8293030238DF82A304FF0010B30
:1042F00037463C4614F8013B002B3CD1B7EB060A8D
:104300000BD05346324629464046FFF771FF013035
:1043100000F0A380099B534409933B78002B00F0E5
:104320009C8000234FF0FF3204930793059206937D
:104330008DF853301A93052221785048FBF770FF0F
:10434000671C049BD8B9D90644BF20228DF853209E
:104350001A0744BF2B228DF8532022782A2A16D020
:10436000079A00210A20274601343B78303B092B6D
:1043700051D9C9B111E0252BC0D02746B9E73F4A32
:10438000801A0BFA00F0184304903C46D3E7039AD6
:10439000111D12680391002A01DB079204E05242CA
:1043A00043F00203079204933B782E2B0ED17B78C7
:1043B0002A2B07F1010132D1039B1A1D1B680392BE
:1043C000002BB8BF4FF0FF33023705932C4C3978E0
:1043D00003222046FBF724FF38B14023001B03FAD9
:1043E00000F0049B034304930137397825488DF886
:1043F000281006227E1CFBF713FF002835D0224B25
:10440000FBB9039B073323F0070308330393099B8E
:104410004B4409936CE700FB02320121A3E7002320
:10442000059318460A240F4601313A78303A092A92
:1044300003D9002BCAD00590C8E704FB0020012354
:10444000F1E703AB00932A46104B04A94046AFF3B3
:104450000080B0F1FF3F8146D9D1AB895B063FF5C3
:1044600038AF09981DB0BDE8F08F03AB00932A4622
:10447000064B04A9404600F081F8EAE7E44B000847
:10448000EA4B0008EE4B000800000000F141000874
:104490002DE9F04791461F468A680B69DDF82080B8
:1044A0009342B8BF1346C9F8003091F8432006463E
:1044B0000C4612B10133C9F800302368990642BF97
:1044C000D9F800300233C9F80030256815F0060528
:1044D00007D104F1190AE368D9F800209B1A9D421C
:1044E00029DB94F843302268003318BF0123920679
:1044F0002ED404F1430239463046C047013021D062
:104500002368E568D9F8002003F00603042B08BFF0
:10451000AD1AA36822690CBF25EAE5750025934210
:10452000C4BF9B1AED184FF000091A344D451BD13A
:104530000020BDE8F0870123524639463046C04787
:10454000013003D14FF0FF30BDE8F0870135C2E7FD
:10455000E1185A1C302081F84300224494F8451099
:1045600082F843100233C4E701232246394630461D
:10457000C0470130E6D009F10109D7E72DE9F04342
:1045800017460A7E85B06E2A984606460C460C9B56
:1045900001F1430E00F0BC801AD8632A2ED00AD84D
:1045A000002A00F0C880582A00F08A8004F14205F1
:1045B00084F842202AE0642A01D0692AF6D12168D1
:1045C0001A6811F0800F23D0111D1960136827E0BD
:1045D000732A00F0B48008D86F2A2AD0702AE5D157
:1045E0000A6842F020020A6003E0752A21D0782A86
:1045F000DCD1782284F845206E4964E01A6801F124
:104600004205111D1960136884F842300123A3E0AC
:1046100011F0400F02F104011960D7D0B2F9003057
:10462000002B03DA2D225B4284F8432062490A22E0
:1046300017E02068196810F0800F03D0081D18607B
:104640000B6806E010F0400F01F104001860F7D08D
:104650000B8859496F2A14BF0A220822002084F8C7
:1046600043006568A560002DC0F29C80206820F0A2
:1046700004002060002B3FD1002D40F0958075464E
:10468000082A0BD12368DA0708D5236962689A42A1
:10469000DEBF302305F8013C05F1FF35AEEB050325
:1046A0002361CDF800803B4603AA21463046FFF740
:1046B000EFFE013055D14FF0FF3005B0BDE8F0837B
:1046C00081F845203C492268186812F0800F00F1FB
:1046D00004051D6001D0036802E05506FBD5038880
:1046E000D00744BF42F0200222601BB9226822F0AA
:1046F000200222601022B1E77546B3FBF2F002FB04
:104700001033CB5C05F8013D03460028F5D1B7E72F
:1047100008681A68496910F0800F04D0101D1860ED
:104720001368196007E010F0400F02F104001860F0
:104730001368F6D01980002323617546B1E71A6823
:10474000111D19601568626800212846FBF768FD95
:1047500008B1401B606063682361002384F8433024
:104760009FE723692A4639463046C0470130A2D028
:1047700023689B0707D5002504F11909E368039A0C
:104780009B1A9D4205DBE068039B9842B8BF184620
:1047900093E701234A4639463046C04701308AD064
:1047A0000135EBE7002BA7D10B7884F8423004F1F8
:1047B000420565E7064C0008F54B0008884210B535
:1047C00001EB020303D8421E99420CD110BD98425E
:1047D000F9D28118D21AD34200D110BD13F8014D7D
:1047E00001F8014DF7E711F8014B02F8014FEBE733
:1047F00038B50546002945D051F8043C0C1F002B64
:10480000B8BFE41800F0D6F81F4A1368104633B951
:10481000636014602846BDE8384000F0CCB8A3427D
:104820000CD921686218934204BF1A685B68636000
:1048300004BF521822600460ECE713465A680AB1BC
:10484000A242FAD919685818A0420BD12068014435
:10485000581882421960DDD1106852685A600144CC
:104860001960D7E702D90C232B60D3E72068211801
:104870008A4204BF11685268626004BF091821604F
:104880005C60C7E738BD00BFE03D002070B5CD1CBF
:1048900025F0030508350C2D38BF0C25002D0646E4
:1048A00001DBA94203D90C233360002070BD00F066
:1048B00081F8234A1468214691B9224C23681BB918
:1048C000304600F067F820602946304600F062F874
:1048D000431C26D10C233360304600F06CF8E4E72B
:1048E0000B685B1B1AD40B2B0FD90B60CD50CC1867
:1048F000304600F060F804F10B00231D20F00700A3
:10490000C31A1BD05A42E25070BD8C420DBF63687F
:104910004B686360136018BF0C46E9E70C464968B2
:10492000CAE7C41C24F00304A04205D0211A304673
:1049300000F030F80130CDD02560D9E770BD00BF60
:10494000E03D0020E43D0020F8B5074614460E4641
:1049500021B91146BDE8F840FFF798BF22B9FFF72B
:1049600047FF25462846F8BD00F026F884420FD9B7
:1049700021463846FFF78AFF05460028F2D0314627
:104980002246FFF7F5FB31463846FFF731FFE9E7EE
:104990003546E7E738B5064C002305460846236050
:1049A00000F014F8431C02D1236803B12B6038BD1A
:1049B000103F00207047704751F8040C0028A0F108
:1049C0000400BCBF0B58C01870470000044B1968A6
:1049D000024609B903491960186802441A60704711
:1049E000E83D0020143F0020F8B500BFF8BC08BC2B
:1049F0009E467047F8B500BFF8BC08BC9E4670479D
:104A0000BB4B00083D38000800000000000000001B
:104A100080000000B24B000859380008FDFF00007C
:104A20000000000080000000A94B0008B538000815
:104A3000FDFF00000000000080000000A04B000807
:104A400091390008FDFF0000000000008000000018
:104A5000974B000839390008FDFF000000000000F6
:104A6000800000008E4B0008B5390008FDFF0000F3
:104A70000000000080000000854B0008E5390008B8
:104A8000FDFF000000000000040100000925750979
:104A900009257525250D0A0009257509093C3125CB
:104AA000250D0A0049444C450054726967676572D8
:104AB000656421005468697320636F6465206D6FBD
:104AC0006E69746F727320666F7220626C75652FE9
:104AD0007573657220627574746F6E207472696785
:104AE0006765722C20616E64207265616473204179
:104AF000444331207768656E2061736B656420776D
:104B0000697468206C65747465722027742700547A
:104B1000696D653A202573200A0D00537461636B3B
:104B20002048696768204D61726B3A20545F646564
:104B30006661756C743D256C642C545F323D256C48
:104B4000642C20545F333D256C642C20545F343D2D
:104B5000256C642020545F353D256C642020545F13
:104B6000363D256C642020545F373D256C640A0D6A
:104B700000546F74616C5F5469636B733A203D2518
:104B80006C640A0D006D795461736B3037006D7978
:104B90005461736B3036006D795461736B3035003E
:104BA0006D795461736B3034006D795461736B307F
:104BB00033006D795461736B3032006465666175E2
:104BC0006C745461736B00543D2564000000000058
:104BD00000000000010203040607080900000000AD
:104BE00001020304232D302B2000686C4C00656605
:104BF000674546470030313233343536373839412E
:104C00004243444546003031323334353637383943
:084C1000616263646566000047
:084C1800D8B6FF7F0100000087
:044C2000F501000892
:044C2400D1010008B2
:104C280001000000AAAAAAAA0024F400100000208B
:104C3800000000000000000000000000000000006C
:104C4800000000000000000000000000000000005C
:104C5800000000000000000000000000000000004C
:104C6800000000000000000000000000000000003C
:104C7800000000000000000000000000000000002C
:104C8800000000000000000000000000000000001C
:04000005080040D5DA
:00000001FF
